:1000000000308A00352800000A108A100A11820781
:100010003F3406345B344F3466346D347D340734FA
:100020007F346F340A108A100A118207003480343A
:1000300040342034103408340434023401340034A1
:100040002530840083130008031934280130F80098
:10005000F701F70B2928F80B28284A30F700F70B8F
:100060002F283228800B2628080003081F39830018
:10007000FF30A000831603170908C0398900031355
:100080001F129F1200300317880083128701880116
:100090008901831383160313860183128601831655
:1000A000051400308312A000831687018312870194
:1000B000A101A201831687008312A000FF308316DE
:1000C0008500DC308312A300051C4C292108F73E73
:1000D00003184C29093E642A21080420A400831631
:1000E000860183122408860021081220A400003013
:1000F000A000831687018312240887002308A50027
:1001000020202108A200A10A4C2921080420A400D3
:100110008316860183122408860021081220A40079
:100120000030A0008316870183122408870023086B
:10013000A50020202108A200A10A4C2921080420A2
:10014000A400831686018312240886002108122049
:10015000A4000030A00083168701831224088700C2
:100160002308A50020202108A200A10A4C2921086B
:100170000420A40083168601831224088600210827
:100180001220A4000030A0008316870183122408E7
:1001900087002308A50020202108A200A10A4C29DD
:1001A00021080420A40083168601831224088600F7
:1001B00021081220A4000030A000831687018312BA
:1001C000240887002308A50020202108A200A10AF6
:1001D0004C2921080420A4008316860183122408D8
:1001E000860021081220A4000030A0008316870199
:1001F0008312240887002308A50020202108A200DC
:10020000A10A4C2921080420A40083168601831228
:100210002408860021081220A4000030A0008316C4
:1002200087018312240887002308A50020202108C5
:10023000A200A10A4C2921080420A40083168601EB
:1002400083122408860021081220A4000030A00098
:10025000831687018312240887002308A500202025
:100260002108A200A10A4C2921080420A400831619
:10027000860183122408860021081220A400003081
:10028000A000831687018312240887002308A50095
:1002900020202108A200A10A851C542A2208A100BE
:1002A000A103210803196D29013A03198529033A8D
:1002B00003199D29013A0319B529073A0319CD29D4
:1002C000013A0319E529033A0319FD29013A0319F3
:1002D000152A0F3A03192D2A452A21080420A400C3
:1002E0008316860183122408860021081220A400A8
:1002F0000030A0008316870183122408870023089A
:10030000A50020202108A200542A21080420A400CE
:100310008316860183122408860021081220A40077
:100320000030A00083168701831224088700230869
:10033000A50020202108A200542A21080420A4009E
:100340008316860183122408860021081220A40047
:100350000030A00083168701831224088700230839
:10036000A50020202108A200542A21080420A4006E
:100370008316860183122408860021081220A40017
:100380000030A00083168701831224088700230809
:10039000A50020202108A200542A21080420A4003E
:1003A0008316860183122408860021081220A400E7
:1003B0000030A000831687018312240887002308D9
:1003C000A50020202108A200542A21080420A4000E
:1003D0008316860183122408860021081220A400B7
:1003E0000030A000831687018312240887002308A9
:1003F000A50020202108A200542A21080420A400DE
:100400008316860183122408860021081220A40086
:100410000030A00083168701831224088700230878
:10042000A50020202108A200542A21080420A400AD
:100430008316860183122408860021081220A40056
:100440000030A00083168701831224088700230848
:10045000A50020202108A200542A21080420A4007D
:100460008316860183122408860021081220A40026
:100470000030A00083168701831224088700230818
:10048000A50020202108A200542A831686013F30AF
:10049000831286000030A000831687018312870133
:1004A0002308A5002020A2012108093C03195A2A8B
:1004B000A1080319A1010230A400FA30A5002020F0
:1004C000A40B5D2A642863000A108A140A118207AB
:1004D0006C2885289E28B728D028E92802291B29BE
:0204E0003429BD
:04400E00E12CFF3F63
:00000001FF
;PIC16F886
;CRC=E27F  CREATED="02-jul.-21 15:38"
