:1000000000308A00272800000A108A100A1182078F
:100010003F3406345B344F3466346D347D340734FA
:100020007F346F342430840083130008031926289A
:100030000130F800F701F70B1B28F80B1A284A309B
:10004000F700F70B21282428800B18280800030844
:100050001F398300831603170908C0398900031369
:100060001F129F1200300317880083128701880136
:100070008901831383160313860183128601831675
:1000800005148312A101A201051CE7282108F73EEF
:100090000318E428093E972921080420A3008316A9
:1000A00086018312230886000630A300FA30A400DC
:1000B0001220A30B5628A10AE42821080420A3003B
:1000C000831686018312230886000630A300FA30C7
:1000D000A4001220A30B6728A10AE4282108042009
:1000E000A300831686018312230886000630A3002E
:1000F000FA30A4001220A30B7828A10AE4282108D2
:100100000420A3008316860183122308860006308C
:10011000A300FA30A4001220A30B8928A10AE42826
:1001200021080420A3008316860183122308860079
:100130000630A300FA30A4001220A30B9A28A10ACB
:10014000E42821080420A3008316860183122308D3
:1001500086000630A300FA30A4001220A30BAB28BF
:10016000A10AE42821080420A30083168601831233
:10017000230886000630A300FA30A4001220A30B47
:10018000BC28A10AE42821080420A30083168601C4
:100190008312230886000630A300FA30A400122040
:1001A000A30BCD28A10AE42821080420A30083166C
:1001B00086018312230886000630A300FA30A400CB
:1001C0001220A30BDE28A10A831605148312851CB6
:1001D0009129A108031DEF282108A200F22801306F
:1001E0002102A2008316860166308312860022084F
:1001F000F73E03188E29093EA42922080420A300F3
:10020000831686018312230886000630A300FA3085
:10021000A4001220A30B07298E2922080420A30082
:10022000831686018312230886000630A300FA3065
:10023000A4001220A30B1729A2038E292208042050
:10024000A300831686018312230886000630A300CC
:10025000FA30A4001220A30B28298E29220804209A
:10026000A300831686018312230886000630A300AC
:10027000FA30A4001220A30B3829A2038E292208E9
:100280000420A3008316860183122308860006300B
:10029000A300FA30A4001220A30B49298E292208BA
:1002A0000420A300831686018312230886000630EB
:1002B000A300FA30A4001220A30B59298E2922088A
:1002C0000420A300831686018312230886000630CB
:1002D000A300FA30A4001220A30B69298E2922085A
:1002E0000420A300831686018312230886000630AB
:1002F000A300FA30A4001220A30B79298E2922082A
:100300000420A3008316860183122308860006308A
:10031000A300FA30A4001220A30B89298316051428
:1003200083122108093C0319A101442863000A141F
:100330008A100A1182074C285D286E287F28902891
:10034000A128B228C328D4280A148A100A118207C7
:10035000FD280D291E292E293F294F295F296F29A4
:020360007F29F3
:04400E00E12CFF3F63
:00000001FF
;PIC16F886
;CRC=F93A  CREATED="30-jun.-21 19:57"
