:1000000000308A00272800000A108A100A1182078F
:100010003F3406345B344F3466346D347D340734FA
:100020007F346F342430840083130008031926289A
:100030000130F800F701F70B1B28F80B1A284A309B
:10004000F700F70B21282428800B18280800030844
:100050001F398300FF30A000831603170908C03939
:10006000890003131F129F120030031788008312A8
:100070008701880189018313831603138601831284
:1000800086018316051400308312A00083168701B1
:1000900083128701A101A201831687008312A000A9
:1000A000FF30831685008312051C32292108F73E94
:1000B00003183229093EE42921080420A3008316ED
:1000C00086018312230886000030A0008316870172
:1000D000831287010630A300FA30A4001220A30B7C
:1000E0006C28A10A322921080420A3008316860166
:1000F0008312230886000030A00083168701403059
:10010000831287000630A300FA30A4001220A30B4C
:100110008428A10A322921080420A300831686011D
:100120008312230886000030A00083168701203048
:10013000831287000630A300FA30A4001220A30B1C
:100140009C28A10A322921080420A30083168601D5
:100150008312230886000030A00083168701103028
:10016000831287000630A300FA30A4001220A30BEC
:10017000B428A10A322921080420A300831686018D
:100180008312230886000030A000831687011030F8
:10019000831287000630A300FA30A4001220A30BBC
:1001A000CC28A10A322921080420A3008316860145
:1001B0008312230886000030A000831687010830D0
:1001C000831287000630A300FA30A4001220A30B8C
:1001D000E428A10A322921080420A30083168601FD
:1001E0008312230886000030A000831687010430A4
:1001F000831287000630A300FA30A4001220A30B5C
:10020000FC28A10A322921080420A30083168601B4
:100210008312230886000030A00083168701023075
:10022000831287000630A300FA30A4001220A30B2B
:100230001429A10A322921080420A300831686016B
:100240008312230886000030A00083168701013046
:10025000831287000630A300FA30A4001220A30BFB
:100260002C29A10A851CD929A108031D3A29210896
:10027000A2003D2901302102A2002208F73E031806
:10028000D429093EF12922080420A30083168601FF
:100290008312230886000630A300FA30A40012203F
:1002A000A30B4D29D42922080420A300831686011C
:1002B0008312230886000630A300FA30A40012201F
:1002C000A30B5D29A203D42922080420A3008316CE
:1002D00086018312230886000630A300FA30A400AA
:1002E0001220A30B6E29D42922080420A300831610
:1002F00086018312230886000630A300FA30A4008A
:100300001220A30B7E29A203D42922080420A300D3
:10031000831686018312230886000630A300FA3074
:10032000A4001220A30B8F29D42922080420A300A3
:10033000831686018312230886000630A300FA3054
:10034000A4001220A30B9F29D42922080420A30073
:10035000831686018312230886000630A300FA3034
:10036000A4001220A30BAF29D42922080420A30043
:10037000831686018312230886000630A300FA3014
:10038000A4001220A30BBF29D42922080420A30013
:10039000831686018312230886000630A300FA30F4
:1003A000A4001220A30BCF29831686016630831286
:1003B00086002108093C0319A101A208031DE229B6
:1003C0000830A200542863000A148A100A11820718
:1003D0005C2873288B28A328BB28D328EB28032963
:1003E0001B290A148A100A118207432953296429F8
:0C03F000742985299529A529B529C5295E
:04400E00E12CFF3F63
:00000001FF
;PIC16F886
;CRC=4043  CREATED="30-jun.-21 21:07"
