:1000000000308A00272800000A108A100A1182078F
:100010003F3406345B344F3466346D347D340734FA
:100020007F346F3425308400831300080319262899
:100030000130F800F701F70B1B28F80B1A284A309B
:10004000F700F70B21282428800B18280800030844
:100050001F398300FF30A000831603170908C03939
:10006000890003131F129F120030031788008312A8
:100070008701880189018313831603138601831284
:1000800086018316051400308312A00083168701B1
:1000900083128701A101A201831687008312A000A9
:1000A000FF3083168500DC308312A300051C222953
:1000B0002108F73E03182229093E1E2A21080420A0
:1000C000A400831686018312240886000030A00055
:1000D00083168701831287012308A50012202108B7
:1000E000A200A10A222921080420A4008316860167
:1000F0008312240886000030A00083168701403058
:10010000831287002308A50012202108A200A10A5B
:10011000222921080420A4008316860183122408C2
:1001200086000030A00083168701203083128700EC
:100130002308A50012202108A200A10A22292108D3
:100140000420A40083168601831224088600003050
:10015000A000831687011030831287002308A500B2
:1001600012202108A200A10A222921080420A400AB
:10017000831686018312240886000030A0008316AF
:1001800087011030831287002308A5001220210860
:10019000A200A10A222921080420A40083168601B6
:1001A0008312240886000030A000831687010830DF
:1001B000831287002308A50012202108A200A10AAB
:1001C000222921080420A400831686018312240812
:1001D00086000030A0008316870104308312870058
:1001E0002308A50012202108A200A10A2229210823
:1001F0000420A400831686018312240886000030A0
:10020000A000831687010230831287002308A5000F
:1002100012202108A200A10A222921080420A400FA
:10022000831686018312240886000030A0008316FE
:1002300087010130831287002308A50012202108BE
:10024000A200A10A851C0E2A2208A100A1032108F0
:1002500003194329013A03195729033A03196C2951
:10026000013A03198129073A03199629013A03191A
:10027000AB29033A0319C029013A0319D5290F3ACA
:100280000319EA29FF2921080420A4008316860106
:100290008312240886000030A00083168701831291
:1002A00087012308A50012202108A2000E2A210898
:1002B0000420A400831686018312240886000030DF
:1002C000A000831687014030831287002308A50011
:1002D00012202108A2000E2A21080420A40083165F
:1002E00086018312240886000030A000831687014F
:1002F0002030831287002308A50012202108A200C5
:100300000E2A21080420A4008316860183122408E3
:1003100086000030A000831687011030831287000A
:100320002308A50012202108A2000E2A210804207B
:10033000A400831686018312240886000030A000E2
:10034000831687011030831287002308A50012202E
:100350002108A2000E2A21080420A4008316860189
:100360008312240886000030A0008316870108301D
:10037000831287002308A50012202108A2000E2A5C
:1003800021080420A4008316860183122408860015
:100390000030A000831687010430831287002308F1
:1003A000A50012202108A2000E2A21080420A40082
:1003B000831686018312240886000030A00083166D
:1003C00087010230831287002308A500122021082C
:1003D000A2000E2A21080420A4008316860183129D
:1003E000240886000030A0008316870101308312A4
:1003F00087002308A50012202108A2000E2A8316D8
:1004000086013F30831286000030A00083168701EA
:10041000831287012308A5001220A2012108093CAC
:100420000319142AA1080319A1010230A400FA300B
:10043000A5001220A40B172A562863000A108A145C
:100440000A1182075E28732889289F28B528CB289F
:06045000E128F7280D2948
:04400E00E12CFF3F63
:00000001FF
;PIC16F886
;CRC=C53A  CREATED="01-jul.-21 08:45"
