:1000000000308A00272800000A108A100A1182078F
:100010003F3406345B344F3466346D347D340734FA
:100020007F346F342330840083130008031926289B
:100030000130F800F701F70B1B28F80B1A284A309B
:10004000F700F70B21282428800B18280800030844
:100050001F398300FF30A000831603170908C03939
:10006000890003131F129F120030031788008312A8
:100070008701880189018313831603138601831284
:1000800086018316051400308312A00083168701B1
:1000900083128701A101831687008312A000FF301D
:1000A00083168500DC308312A200051C0F2921086D
:1000B000F73E03180F29093EEC2921080420A3006C
:1000C000831686018312230886000030A000831661
:1000D0008701831287012208A3001220A10A0F2999
:1000E00021080420A30083168601831223088600BA
:1000F0000030A00083168701403083128700220859
:10010000A3001220A10A0F2921080420A3008316AE
:1001100086018312230886000030A0008316870121
:100120002030831287002208A3001220A10A0F2981
:1001300021080420A3008316860183122308860069
:100140000030A00083168701103083128700220838
:10015000A3001220A10A0F2921080420A30083165E
:1001600086018312230886000030A00083168701D1
:100170001030831287002208A3001220A10A0F2941
:1001800021080420A3008316860183122308860019
:100190000030A000831687010830831287002208F0
:1001A000A3001220A10A0F2921080420A30083160E
:1001B00086018312230886000030A0008316870181
:1001C0000430831287002208A3001220A10A0F29FD
:1001D00021080420A30083168601831223088600C9
:1001E0000030A000831687010230831287002208A6
:1001F000A3001220A10A0F2921080420A3008316BE
:1002000086018312230886000030A0008316870130
:100210000130831287002208A3001220A10A851C46
:10022000E629A103210803192E29013A03194029BF
:10023000033A03195329013A03196629073A0319A6
:100240007929013A03198C29033A03199F29013AA4
:100250000319B2290F3A0319C529D8292108042006
:10026000A300831686018312230886000030A000B5
:1002700083168701831287012208A3001220E62932
:1002800021080420A3008316860183122308860018
:100290000030A000831687014030831287002208B7
:1002A000A3001220E62921080420A300831686015A
:1002B0008312230886000030A000831687012030B7
:1002C000831287002208A3001220E62921080420B7
:1002D000A300831686018312230886000030A00045
:1002E000831687011030831287002208A300122092
:1002F000E62921080420A30083168601831223081F
:1003000086000030A000831687011030831287001A
:100310002208A3001220E62921080420A300831646
:1003200086018312230886000030A000831687010F
:100330000830831287002208A3001220E629210832
:100340000420A30083168601831223088600003050
:10035000A000831687010430831287002208A300BF
:100360001220E62921080420A300831686018312A7
:10037000230886000030A000831687010230831214
:1003800087002208A3001220E62921080420A300E8
:10039000831686018312230886000030A00083168E
:1003A00087010130831287002208A3001220E6296A
:1003B000831686013F30831286000030A00083162A
:1003C0008701831287012208A30012202108093C1B
:1003D0000319A101552863000A148A100A11820723
:1003E0005D28702884289828AC28C028D428E828BC
:0203F000FC28E7
:04400E00E12CFF3F63
:00000001FF
;PIC16F886
;CRC=6198  CREATED="30-jun.-21 21:49"
